:040000008031D8284B
:10000800803120007F08F9000B1DD52802307302CB
:10001800031C7B280330F500750822008D04FF308F
:100028008E007108031D432820006C03031D262839
:100038006808003E840087300318013E85000008E8
:10004800803834280A3020006806031943286808D5
:10005800003E840087300318013E850000087F3980
:10006800FF3A22008E0071080F3E84008730031883
:10007800013E85000008FF3AF50075088D057103FB
:10008800031D722821002803031D55282000690834
:10009800003E840087300318013E85000008803840
:1000A80063280A3020006906031972286908003E8F
:1000B800840087300318013E850000087F39FF3A25
:1000C80022008E0071080F3E840087300318013E1D
:1000D80085000008FF3AF50075088D050130F50028
:1000E8007508F107023071020318F101F3010130BC
:1000F800F5007508F30720002E082F040319882837
:100108000130AE020030AF3B270826042504240442
:1001180003199E280130F5000030F6000030F70082
:100128000030F8007508A4027608A53B7708A63BBE
:100138007808A73B300831040319A6280130B0021B
:100148000030B13B320833040319AE280130B20243
:100158000030B33B65086404630462040319C428CF
:100168000130F5000030F6000030F7000030F800EC
:100178007508E2027608E33B7708E43B7808E53B3C
:10018800340835040319CC280130B4020030B53BDB
:10019800360837040319D4280130B6020030B73BBB
:1001A8000B117908FF0009008031DA288C308400AF
:1001B800213085006430FE000030FF0087311127B0
:1001C8008031F001F101F201F301F40120308400E3
:1001D800003085002A30FE000030FF0087311127EB
:1001E80080312100A001A101A201A30120008731D3
:1001F80026278031ED00873127278031EE008731AF
:100208002827EF00200081310929210099111916AA
:100218009916191797101711971517169712151081
:1002280095141511951295118B168B1723000C1028
:100238008C100C118C118C1221000C108C100C11CC
:100248008C110C128C120C138C1322000C108C10B5
:100258000C118C110C128C120C138C1323000D1022
:100268008D1021000D108D1022000D108D1023000F
:100278000D118D110D128D1221000D120D158D15F8
:100288000D168D160D178D17951324008D150D1647
:1002980021008E0122008E0123008E018C12210084
:1002A8008C1222008C1297169713171621001D1412
:1002B8001D08833978389D009E172000C901BF01A9
:1002C800E801E901BD01EC012100A8012000C401F9
:1002D8000030E5000030E4001330E3008830E2002D
:1002E800B80164302100A40024082000EA000F307F
:1002F800E6000030E70001302100A40024082000B7
:10030800EB00B9010E302100A40024082000E80009
:100318000E302100A40024082000E900013021004B
:10032800A40024082000EC0001302100A4002408C7
:10033800A8000B30A6002630A5006630A400A40B48
:10034800A329A50BA329A60BA329003220006E0818
:100358002100A40024082000CA006D088631562612
:1003680081312100A50025082000C1006F08210067
:10037800A40024082000CA006D0886315626813161
:100388002100A50025082000C000410A031DD4292A
:10039800400A031DD429C101C001AA01AB01F929F2
:1003A80040082100A400A50124082000AC00210079
:1003B80025082000AD002C082100A500A401240870
:1003C8002000AC00210025082000AD0041082100D4
:1003D800A400A50124082000AC0421002508200061
:1003E800AD042D08AB002C08AA002C082D04031D11
:1003F800012A6708AD006608AC00073020002D020E
:10040800093003192C02031C0D2A0830AC000730F0
:10041800AD002C082D04031D152A0130AC00003056
:10042800AD008D1D0D1E392A3808031D392A4708CD
:10043800031D282A82302100A500DD30A400A40B6A
:10044800232AA50B232A003220008D193E2A4708AB
:10045800031D3E2A0130AC070030AD3D01302100BC
:10046800A40024082000C7003E2AC701DC30AE00E3
:100478000530AF002E082F04031D532A4703031D20
:10048800532A0130AC070030AD3D1A302100A500D9
:10049800F830A400A40B4E2AA50B4E2A0000200019
:1004A8008D190D1A782A3808031D782A4608031D65
:1004B800672A82302100A500DD30A400A40B622A3F
:1004C800A50B622A003220000D1A7D2A4608031D5A
:1004D8007D2A0130AC020030AD3B01302100A40080
:1004E80024082000C6007D2AC601DC30B40005308F
:1004F800B50034083504031D922A4603031D922AC9
:100508000130AC020030AD3B1A302100A500F830B4
:10051800A400A40B8D2AA50B8D2A000020008D1D98
:100528000D1ADC2A3808031DDC2A0B302100A6002E
:100538002630A5006630A400A40BA02AA50BA02A8B
:10054800A60BA02A003264000B302100A60026303A
:10055800A5006630A400A40BAF2AA50BAF2AA60BF2
:10056800AF2A003264000B302100A6002630A50017
:100578006630A400A40BBE2AA50BBE2AA60BBE2A71
:100588000032640020008D1D0D1ACE2A6708AD00C8
:100598006608AC000B302100A6002630A5006630A6
:1005A800A400A40BD52AA50BD52AA60BD52A003260
:1005B80020002B082D06031DE32A2A082C06031DFC
:1005C8008D1D5A2B0D1E5A2B0F303702A0300319E0
:1005D80036020318FA2A01302100A400240820005A
:1005E800EC0001302100A4002408A80020003608EF
:1005F8003704031D5E2B2C082100A40024082000CA
:10060800DF006E082100A40024082000CA006D083D
:1006180086313626813120006E082100A400240886
:100628002000CA005F082100A50025082000CB0093
:100638006D0886310F26813120002D082100A40085
:1006480024082000DF006F082100A40024082000EF
:10065800CA005F082100A50025082000CB006D080E
:1006680086310F26813120006E082100A40024085D
:100678002000CA006D088631562681312100A50068
:1006880025082000C1006F082100A40024082000CC
:10069800CA006D088631562681312100A50025083B
:1006A8002000C0002D08AB002C08AA008830B60036
:1006B8001330B7008D1A822B3908031D872B0030A1
:1006C80031020A30031930020318872B3808031D3A
:1006D8007A2B01302100A40024082000B800013042
:1006E8002100A40024082000EB007B2BB801013076
:1006F8002100A40024082000B900872BB9013C3050
:10070800B0000030B1002C082D04031D8F2B0130E0
:10071800AC000030AD002C08CA002D08CB00CC017D
:10072800CD010030D1000030D0000330CF00E830D8
:10073800CE008531B225813120004D08A3004C0838
:10074800A2004B08A1004A08A00007306B02031C56
:10075800B32B01302100A40024082000EB0038034B
:10076800031D092C6508640463046204031D092C35
:100778002308E5002208E4002108E3002008E2003D
:10078800EE2B22000C14EB2BD32B22000C108C1414
:10079800EC2BD32B22000C108C100C15032C2000F2
:1007A8006A082100A400A501A601A70127082000C6
:1007B800E500210026082000E4002100250820008B
:1007C800E300210024082000E20022000C108C1015
:1007D8000C11032C20006B08013A0319C52B033AAE
:1007E8000319C82B013A0319C92B073A0319CD2B52
:1007F800013A0319CE2B033A0319D32B032C0130EA
:100808002100A40024082000EB073803031D292C2D
:1008180032083304031D292CC830B2000030B3005D
:1008280022000C0C2100A400A40C240C0139A40003
:100838000130A406A40DA40DA40D22000C0821006B
:100848002406F739240622008C0020003808031DEE
:100858003B2C22000C108C100C118C110030200045
:10086800E5000030E4000030E3000030E200380327
:10087800031D5D2C0030CD000030CC000330CB00D0
:10088800E830CA006508D1006408D0006308CF00CA
:100898006208CE0085312A25813120004B08E1000D
:1008A8004A08E0006008013ED8000030613DD900E8
:1008B800622C20002D08D9002C08D80084317A2415
:1008C800813120003808031D722C0030A7001B302E
:1008D800A6007730A5004030A400782C270826040D
:1008E800250424040319B8016400012A02302000F9
:1008F8005902583003195802031CB82C3C30D00058
:100908000030D1005908D3005808D20085317D2520
:10091800843120005108D9005008D8000A30D0008E
:100928000030D1005908D3005808D20085317D2500
:10093800843120005008DA005A08E8000A30CA005A
:100948000030CB005908CD005808CC008531E2258D
:1009580020004A08DA005A08E900EC010130DA0000
:100968005A082100A800080000302000590264300D
:1009780003195802031CF32C3C30D0000030D1007E
:100988005908D3005808D20085317D2584312000CC
:100998005008DA005A08E8000130DA005A08EC007A
:1009A8002100A8010A302000D0000030D1005908E9
:1009B800CD005808CC003C30CA000030CB0085314F
:1009C800E225843120004B08D3004A08D200853143
:1009D8007D2520005008DA005A08E9000800003098
:1009E80059020A3003195802031C1D2D0A30D00081
:1009F8000030D1005908D3005808D20085317D2530
:100A0800843120005008DA005A08E8000A30CA0089
:100A18000030CB005908CD005808CC008531E225BC
:100A280020004A08DA005A08E900EC012100A80170
:100A380008000A302000DA005A08E8005808DA00EE
:100A48005A08E900EC012100A80108000030200044
:100A5800D6000030D5000030D4000030D3004D0857
:100A68004C044B044A040319742DD701D70ACD1B33
:100A7800492D0130CA35CB0DCC0DCD0D890B3E2D3E
:100A88000130D2005208D7073B2D0130D335D40DA1
:100A9800D50DD60D890B4A2D4D085102031D5E2D2B
:100AA8004C085002031D5E2D4B084F02031D5E2D9E
:100AB8004A084E02031C692D4A08CE024B08CF3B58
:100AC8004C08D03B4D08D13B53140130CD36CC0CEB
:100AD800CB0CCA0C890B6A2D0130D702031D492D96
:100AE8005608CD005508CC005408CB005308CA005E
:100AF80008002000D501D601500851040319AD2D76
:100B0800D701D70AD11B922D0130D035D10D890BD1
:100B1800892D0130D4005408D707862D0130D535EA
:100B2800D60D890B932D51085302031D9D2D500896
:100B38005202031CA42D5008D2025108D33B55146D
:100B48000130D136D00C890BA52D0130D702031DF9
:100B5800922D5608D1005508D0000800003020001A
:100B6800D5000030D4000030D3000030D2004A1C39
:100B7800C52D4E08D2074F08D33D5008D43D510823
:100B8800D53D0130CE35CF0DD00DD10D890BC62DF9
:100B98000130CD36CC0CCB0CCA0C890BCD2D4D08B1
:100BA8004C044B044A04031DBB2D5508CD005408C2
:100BB800CC005308CB005208CA00080020004A089D
:100BC8004B0403190A2ECF01CF0ACB1BF52D013098
:100BD800CA35CB0D890BEC2D0130CE004E08CF075E
:100BE800E92D4B084D02031DFB2D4A084C02031C3E
:100BF800012E4A08CC024B08CD3B0130CB36CA0C3B
:100C0800890B022E0130CF02031DF52D4D08CB00B4
:100C18004C08CA0008002000CE008B1323001513CF
:100C280020004E082300920020004A08230091006B
:100C380015129516151520004B08230093009401F2
:100C4800951287311D27863108302000CD00C93024
:100C5800CC00CC0B2D2ECD0B2D2E003223001511E0
:100C68008B1708002000CD008B13230015132000DC
:100C78004D082300920020004A0823009100151611
:100C8800151587311D27863108302000CC00C93062
:100C9800CB00CB0B4D2ECC0B4D2E00322300151163
:100CA8008B1708002000CB002300151320004A08EA
:100CB8002300910020004B08230092001514000027
:080CC8000000230013080800DE
:100E00003F3406345B344F3466346D347D340734FC
:100E10007F346F340034403463341C344034013444
:100E200002346400800101310130FE020030FF3BDA
:100E30007F087E0403190034122F553023009600DA
:100E4000AA30960095140000000008001F34FD34FD
:020E5000FE346E
:020000040001F9
:04000E007CFFFFFF75
:00000001FF
