:040000008031E12842
:10000800803120007F08F9000B1DDE2802307302C2
:10001800031C7C280330F500750822008D04FF308E
:100028008E007108031D442821002A03031D272878
:1000380020006808003E840088300318013E8500CF
:100048000008803835280A3020006806031944283B
:100058006808003E840088300318013E85000008C7
:100068007F39FF3A22008E0071080F3E84008830E5
:100078000318013E85000008FF3AF50075088D0554
:100088007103031D732821002B03031D562820002C
:100098006908003E840088300318013E8500000886
:1000A800803864280A302000690603197328690813
:1000B800003E840088300318013E850000087F391F
:1000C800FF3A22008E0071080F3E84008830031822
:1000D800013E85000008FF3AF50075088D050130DE
:1000E800F5007508F107023071020318F101F301F8
:1000F8000130F5007508F30720002C082D040319BA
:1001080089280130AC020030AD3B270826042504BD
:10011800240403199F280130F5000030F600003050
:10012800F7000030F8007508A4027608A53B7708A8
:10013800A63B7808A73B2E082F040319A7280130EF
:10014800AE020030AF3B300831040319AF2801304C
:10015800B0020030B13B6708660465046404031903
:10016800C5280130F5000030F6000030F7000030F7
:10017800F8007508E4027608E53B7708E63B78085E
:10018800E73B320833040319CD280130B2020030AE
:10019800B33B340835040319D5280130B4020030C4
:1001A800B53B360837040319DD280130B6020030A4
:1001B800B73B0B117908FF0009008031E3288C3028
:1001C8008400213085006430FE000030FF00873154
:1001D800AE278031F001F101F201F301F401203082
:1001E8008400003085002C30FE000030FF0087318D
:1001F800AE2780312100A001A101A201A301A40121
:10020800A501A601A70120008731C3278031EC0092
:100218008731C4278031ED008731C5278031EE0052
:100228008731C627EF00200081311A292100991152
:100238001916991619179710171197151716971257
:10024800151095141511951295118B168B172300FF
:100258000C108C100C118C118C1221000C108C10AD
:100268000C118C110C128C120C138C1322000C1014
:100278008C100C118C110C128C120C138C13230083
:100288000D108D1021000D108D1022000D108D10F5
:1002980023000D118D110D128D1221000D120D1557
:1002A8008D150D168D160D178D17951324008D15A8
:1002B8000D1621008E0122008E0123008E018C1262
:1002C80021008C1222008C12971697131716210002
:1002D8001D141D08833978389D009E172000CB0116
:1002E800BF01E801E901BD012100AA01AB0120001D
:1002F800C5010030E7000030E6001330E500883023
:10030800E400B8010A302100A8000030A9006430D8
:10031800AC002C082000EA0001302100AC002C08B9
:100328002000EB00B9010E302100AC002C082000A1
:10033800E8000E302100AC002C082000E900013054
:100348002100AC002C08AA000130AC002C08AB003E
:100358000B30AE002630AD006630AC00AC0BB229D5
:10036800AD0BB229AE0BB229003220006D08210076
:10037800AC002C082000CC006C0887319C27813108
:100388002100AD002D082000C1006E082100AC003E
:100398002C082000CC006C0887319C278131210073
:1003A800AD002D082000C0006F082100AC002C080B
:1003B8002000CC006C0887319C2781312100AD00DA
:1003C8002D082000C200A63042060319EE29C701F5
:1003D800C201F429A6302100AC002C082000C70077
:1003E800410A031DFF29400A031DFF29C101C0015D
:1003F800A801A901242A40082100AC00AD012C085D
:100408002000AA0021002D082000AB002A082100A6
:10041800AD00AC012C082000AA0021002D08200006
:10042800AB0041082100AC00AD012C082000AA0453
:1004380021002D082000AB042B08A9002A08A800D9
:100448002A082B04031D302A210029082000AB00AC
:10045800210028082000AA00073020002B020930BC
:1004680003192A02031C3C2A0830AA000730AB00F3
:100478002A082B04031D442A0130AA000030AB00CF
:100488008D1D0D1E682A3808031D682A4908031D9A
:10049800572A82302100AD00DD30AC00AC0B522A67
:1004A800AD0B522A003220008D196D2A4908031D10
:1004B8006D2A0130AA070030AB3D01302100AC00A5
:1004C8002C082000C9006D2AC901DC30AC000530B9
:1004D800AD002C082D04031D822A4903031D822A1E
:1004E8000130AA070030AB3D1A302100AD00F830CA
:1004F800AC00AC0B7D2AAD0B7D2A000020008D19C5
:100508000D1AA72A3808031DA72A4808031D962A8A
:1005180082302100AD00DD30AC00AC0B912AAD0B70
:10052800912A003220000D1AAC2A4808031DAC2A73
:100538000130AA020030AB3B01302100AC002C088E
:100548002000C800AC2AC801DC30B2000530B30076
:1005580032083304031DC12A4803031DC12A013090
:10056800AA020030AB3B1A302100AD00F830AC00D5
:10057800AC0BBC2AAD0BBC2A000020008D1D0D1A47
:100588000F2B3808031D0F2B0B302100AE0026302F
:10059800AD006630AC00AC0BCF2AAD0BCF2AAE0B4A
:1005A800CF2A003264000B302100AE002630AD00A7
:1005B8006630AC00AC0BDE2AAD0BDE2AAE0BDE2AB1
:1005C800003264000B302100AE002630AD006630EA
:1005D800AC00AC0BED2AAD0BED2AAE0BED2A0032C8
:1005E800640020008D1D0D1A012B21002908200010
:1005F800AB00210028082000AA000B302100AE0023
:100608002630AD006630AC00AC0B082BAD0B082BC8
:10061800AE0B082B003220008D1A472B3608370402
:10062800031D4C2B1030B6002730B700A630470604
:10063800031D202BC701262BA6302100AC002C0857
:100648002000C70022008C1564000B302100AE008A
:100658002630AD006630AC00AC0B302BAD0B302B28
:10066800AE0B302B003264000B302100AE00263078
:10067800AD006630AC00AC0B3F2BAD0B3F2BAE0B87
:100688003F2B00324C2B10302000B6002730B7002B
:1006980020004708031D522BFA30532B323021001B
:1006A800A2000030A300200029082B06031D5E2BA2
:1006B80028082A06031D642B420847060319FD2B48
:1006C8008D190D1EFD2B0F303502A0300319340291
:1006D8000318772B01302100AC002C08AA00013048
:1006E800AC002C08AB00200034083504031D012C95
:1006F8002A082100AC002C082000E1006D08210028
:10070800AC002C082000CC006C0887317C27813194
:1007180020006D082100AC002C082000CC006108E6
:100728002100AD002D082000CD006C088731552729
:10073800813120002B082100AC002C082000E100AA
:100748006E082100AC002C082000CC0061082100B4
:10075800AD002D082000CD006C0887315527813168
:1007680020006F082100AC002C082000CC004708AE
:100778002100AD002D082000CD006C0887315527D9
:10078800813120006D082100AC002C082000CC002D
:100798006C0887319C2781312100AD002D0820008D
:1007A800C1006E082100AC002C082000CC006C08A9
:1007B80087319C2781312100AD002D082000C00021
:1007C8006F082100AC002C082000CC006C08873191
:1007D8009C2781312100AD002D082000C200470868
:1007E8002100AC002C082000C2002B08A9002A0810
:1007F800A8008830B4001330B5008D1A252C3908AC
:10080800031D2A2C00302F020A3003192E02031868
:100818002A2C3808031D1D2C01302100AC002C089F
:100828002000B80001302100AC002C082000EB00AB
:100838001E2CB80101302100AC002C082000B900A2
:100848002A2CB9013C30AE000030AF002A082B0436
:10085800031D322C0130AA000030AB002A08CC005E
:100868002B08CD00CE01CF010030D3000030D200DC
:100878000330D100E830D0008631F82681312000DD
:100888004F08A3004E08A2004D08A1004C08A00084
:1008980007306B02031C562C01302100AC002C08D9
:1008A8002000EB003803031DAF2C670866046504BD
:1008B8006404031DAF2C4708031DAF2C2308E70071
:1008C8002208E6002108E5002008E400942C220014
:1008D8000C14912C792C22000C108C14922C792C4D
:1008E80022000C108C100C15A92C20006A0821007D
:1008F800AC00AD01AE01AF012F082000E7002100D8
:100908002E082000E60021002D082000E500210027
:100918002C082000E40022000C108C100C11A92CCB
:1009280020006B08013A03196B2C033A03196E2C4B
:10093800013A03196F2C073A0319732C013A03196A
:10094800742C033A0319792CA92C01302100AC002E
:100958002C082000EB073803031D392D67086604AF
:1009680065046404031D392DA6304706031D392D7F
:100978002308E7002208E6002108E5002008E40033
:100988001E2D6A082100AC00AD01AE01AF012F0891
:100998002000E70021002E082000E60021002D0895
:1009A8002000E50021002C082000E40022000C149F
:1009B8008C10FA2C22000C14F92C20006A08210053
:1009C800AC00AD01AE01AF012F082000E700210007
:1009D8002E082000E60021002D082000E500210057
:1009E8002C082000E40022000C108C140C11332D6C
:1009F80022000C108C141C2D20006A082100AC0069
:100A0800AD01AE01AF012F082000E70021002E083C
:100A18002000E60021002D082000E50021002C0818
:100A28002000E40022000C101B2D22000C148C1056
:100A38000C15332D20006B08013A0319C52C033A15
:100A48000319DE2C013A0319E12C073A0319FC2C8F
:100A5800013A0319002D033A0319192D332D0130DA
:100A68002100AC002C082000EB073803031D5D2D86
:100A780030083104031D5D2D210023082000B1003A
:100A8800210022082000B00022000C0C2100AC003C
:100A9800AC0C2C0C0139AC000130AC06AC0DAC0D23
:100AA800AC0D22000C0821002C06F7392C06220078
:100AB8008C0020003808031D6F2D22000C108C10AC
:100AC8000C118C1100302000E7000030E6000030E7
:100AD800E5000030E4003803031DA12D0030CF00ED
:100AE8000030CE000330CD00E830CC00FF30640782
:100AF800D000FF30653DD100FF30663DD200FF30A9
:100B0800673DD30086317026813120004D08E3000F
:100B18004C08E2006708031D9A2D6608031D9A2DEC
:100B2800F53064020130653B031CA92D6208013EC3
:100B3800DA000030633DDB00A62D20002B08DB0027
:100B48002A08DA008531BE25813120003808031DC6
:100B5800B62D0030A7001B30A6007730A500403026
:100B6800A400BC2D27082604250424040319B80171
:100B78006400302A023020005B02583003195A0200
:100B8800031CFE2D3C30D2000030D3005B08D5009A
:100B98005A08D4008631C326853120005308DB006B
:100BA8005208DA000A30D2000030D3005B08D500C2
:100BB8005A08D4008631C326853120005208DC004B
:100BC8005C08E8000A30CC000030CD005B08CF009C
:100BD8005A08CE008731282720004C08DC005C0822
:100BE800E9002100AA0101302000DC005C08210096
:100BF800AB000800003020005B02643003195A0281
:100C0800031C392E3C30D2000030D3005B08D500DD
:100C18005A08D4008631C326853120005208DC00EA
:100C28005C08E8000130DC005C082100AA00AB0188
:100C38000A302000D2000030D3005B08CF005A08E9
:100C4800CE003C30CC000030CD00873128278531DC
:100C580020004D08D5004C08D4008631C32620005A
:100C68005208DC005C08E900080000305B020A302A
:100C780003195A02031C632E0A30D2000030D30035
:100C88005B08D5005A08D4008631C3268531200078
:100C98005208DC005C08E8000A30CC000030CD00C7
:100CA8005B08CF005A08CE008731282720004C085F
:100CB800DC005C08E9002100AA01AB0108000A3049
:100CC8002000DC005C08E8005A08DC005C08E90049
:100CD8002100AA01AB01080000302000D800003034
:100CE800D7000030D6000030D5004F084E044D0420
:100CF8004C040319BA2ED901D90ACF1B8F2E013003
:100D0800CC35CD0DCE0DCF0D890B842E0130D400FE
:100D18005408D907812E0130D535D60DD70DD80DF9
:100D2800890B902E4F085302031DA42E4E08520221
:100D3800031DA42E4D085102031DA42E4C08500279
:100D4800031CAF2E4C08D0024D08D13B4E08D23BB5
:100D58004F08D33B55140130CF36CE0CCD0CCC0CFC
:100D6800890BB02E0130D902031D8F2E5808CF00F1
:100D78005708CE005608CD005508CC0008002000C2
:100D8800D701D801520853040319F32ED901D90AFF
:100D9800D31BD82E0130D235D30D890BCF2E01307D
:100DA800D6005608D907CC2E0130D735D80D890B77
:100DB800D92E53085502031DE32E52085402031C72
:100DC800EA2E5208D4025308D53B57140130D336C3
:100DD800D20C890BEB2E0130D902031DD82E5808EE
:100DE800D3005708D200080000302000D700003098
:100DF800D6000030D5000030D4004C1C0B2F500812
:100E0800D4075108D53D5208D63D5308D73D013087
:100E1800D035D10DD20DD30D890B0C2F0130CF3623
:100E2800CE0CCD0CCC0C890B132F4F084E044D045F
:100E38004C04031D012F5708CF005608CE00550853
:100E4800CD005408CC00080020004C084D040319BC
:100E5800502FD101D10ACD1B3B2F0130CC35CD0D00
:100E6800890B322F0130D0005008D1072F2F4D08A1
:100E78004F02031D412F4C084E02031C472F4C08FC
:100E8800CE024D08CF3B0130CD36CC0C890B482F14
:100E98000130D102031D3B2F4F08CD004E08CC0076
:100EA80008002000D0008B132300151320005008E1
:100EB8002300920020004C0823009100151295167B
:100EC800151520004D0823009300940195128731D1
:100ED800BA27873108302000CF00C930CE00CE0BAA
:100EE800732FCF0B732F0032230015118B170800B7
:100EF8002000CF008B132300151320004F08230078
:100F0800920020004C082300910015161515873112
:100F1800BA27873108302000CE00C930CD00CD0B6C
:100F2800932FCE0B932F0032230015118B17080037
:100F38002000CD002300151320004C082300910049
:100F480020004D0823009200151400000000230023
:100F5800130808006400800101310130FE020030EE
:100F6800FF3B7F087E0403190034AF2F5530230060
:100F78009600AA30960095140000000008001F345F
:060F8800FD34FE34FF34CD
:101000003F3406345B344F3466346D347D340734FA
:101010007F346F340034403463341C344034013442
:02102000023498
:020000040001F9
:04000E007CFFFFFF75
:00000001FF
